:020000040800F2
:10000000002800206D080008FD070008030800080C
:10001000090800080F080008150800080000000083
:100020000000000000000000000000001B080008A5
:100030002708000800000000330800083F080008F7
:10004000B5080008B5080008B5080008B50800089C
:10005000B5080008B5080008B5080008B50800088C
:10006000B5080008B5080008B5080008B50800087C
:10007000B5080008B5080008B5080008B50800086C
:10008000B5080008B5080008B5080008B50800085C
:10009000B5080008B5080008B5080008B50800084C
:1000A000B5080008B5080008B5080008B50800083C
:1000B0004D080008B508000800000000B508000859
:1000C000B50800080000000000000000B5080008A6
:1000D00000000000B5080008B50800080000000096
:1000E000B5080008B5080008B508000800000000C1
:1000F0000000000000000000000000000000000000
:0C01000000000000000000005FF808F1A3
:10010C0010B5054C237833B9044B13B10448AFF345
:10011C0000800123237010BD20000020000000008F
:10012C00B81E000808B5034B1BB103490348AFF3D5
:10013C00008008BD0000000024000020B81E00084C
:10014C0080B586B000AF78601D4A07F1080307CA76
:10015C0003C31A807B68002B2EDB7B68092B2BDCFE
:10016C0000237B6124E007F108027B6813441B78B1
:10017C001A467B6942FA03F303F00103002B0AD001
:10018C0001227B6902FA03F39BB2012219460D4846
:10019C0000F076FE09E001227B6902FA03F39BB2C0
:1001AC0000221946074800F06BFE7B6901337B6126
:1001BC007B69062BD7DD00E000BF1837BD4680BD3C
:1001CC00D01E0008000C014080B582B000AF7860F2
:1001DC0001224FF470711B4800F052FE1A4A7B68E2
:1001EC0052F823301846FFF7ABFF7B68032B25D85A
:1001FC0001A252F823F000BF1502000821020008EA
:10020C002D0200083B020008002240210D4800F09E
:10021C0037FE13E0002280210A4800F031FE0DE089
:10022C0000224FF48071074800F02AFE06E00022FD
:10023C004FF40071034800F023FE00BF00BF0837E5
:10024C00BD4680BD000801404000002080B400AFD6
:10025C001A4B1B681A4A82FB03129210DB17D31A33
:10026C00184A1360154B1968154B83FB01239A1020
:10027C00CB17D21A13469B0013445B00CA1A114BBE
:10028C005A60114B1B680E4A82FB03129210DB174B
:10029C00D31A0C4A93600C4B1968094B83FB01234E
:1002AC009A10CB17D21A13469B0013445B00CA1A40
:1002BC00044BDA6000BFBD4680BC704708000020CC
:1002CC0067666666400000200C00002080B500AF19
:1002DC0000F0ECFA00F09EF800F0D8F800F022F9EB
:1002EC0000F088F900F0AEF90346414A136000F0C3
:1002FC00A9F903463F4A13603D4B1B68B3F1FF3F1E
:10030C0005D03B4B1B683221184600F0BDF9394B28
:10031C001B68B3F1FF3F06D0364B1B684FF47A7164
:10032C00184600F0B1F9FFF791FF334801F006FAD7
:10033C002F4B1B68B3F1FF3F1CD02D4B1B682F4A72
:10034C0052F82330012B15D1294B1B68322118464A
:10035C0000F09AF92A4B1B685A1C29490A60184666
:10036C00FFF732FF264B1B680422934202DB244B1F
:10037C0000221A601F4B1B68B3F1FF3FD8D01D4BF6
:10038C001B681E4A52F82330012BD1D1194B1B6824
:10039C004FF47A71184600F077F91021194800F0E3
:1003AC0087FD194B1B680133174A1360164B1B68EA
:1003BC003B2B07DD154B1B680133144A1360124BA2
:1003CC0000221A60114B1B683B2B07DD104B1B687E
:1003DC0001330F4A13600D4B00221A600C4B1B6843
:1003EC00172B02DD0A4B00221A60FFF72FFF9FE745
:1003FC000000002004000020500000209800002085
:10040C003C00002000080140100000200C000020DF
:10041C000800002080B590B000AF07F11803282227
:10042C000021184601F03AFD3B1D00221A605A606B
:10043C009A60DA601A610223BB610123BB6210234C
:10044C00FB6200237B6307F11803184600F04AFD9A
:10045C000346002B01D000F0C8F80F237B6000236B
:10046C00BB600023FB6000233B6100237B613B1DD1
:10047C000021184600F0B6FF0346002B01D000F017
:10048C00B4F800BF4037BD4680BD000080B586B0D3
:10049C0000AF07F1080300221A605A609A60DA6014
:1004AC003B4600221A605A601D4B4FF080421A6086
:1004BC001B4B41F63F725A60194B00229A60184B45
:1004CC000922DA60164B00221A61154B00229A6140
:1004DC00134801F0E3F80346002B01D000F085F837
:1004EC004FF48053BB6007F1080319460C4801F028
:1004FC0061FA0346002B01D000F077F800233B6033
:10050C0000237B603B461946054801F039FC034645
:10051C00002B01D000F069F800BF1837BD4680BD34
:10052C005000002080B586B000AF07F10803002210
:10053C001A605A609A60DA60214B9B69204A43F03A
:10054C00040393611E4B9B6903F004037B607B687F
:10055C001B4B9B691A4A43F008039361184B9B6928
:10056C0003F008033B603B6800224FF47C71154894
:10057C0000F086FC00227F21134800F081FC4FF430
:10058C007C73BB600123FB6000233B6102237B6116
:10059C0007F1080319460B4800F0F8FA7F23BB60FB
:1005AC000123FB6000233B6102237B6107F10803FD
:1005BC001946054800F0EAFA00BF1837BD4680BD61
:1005CC000010024000080140000C014080B582B0D0
:1005DC0000AF78607B681B68B3F1804F01D100F0ED
:1005EC0079F800BF0837BD4680BD80B400AF72B645
:1005FC0000BFFEE780B483B000AF00237B6011E046
:10060C000D4A7B68002142F823100C4A7B680021BC
:10061C0042F823100A4A7B68002142F823107B68B9
:10062C0001337B607B68092BEADD00BF00BF0C3710
:10063C00BD4680BC704700BF98000020C000002061
:10064C00E800002080B483B000AF00237B600FE093
:10065C000C4A7B6852F82330002B06D1094A7B6880
:10066C00012142F823107B6807E07B6801337B6033
:10067C007B68092BECDD4FF0FF3318460C37BD4679
:10068C0080BC7047E800002080B483B000AF786075
:10069C0039607B68002B12DB7B68092B0FDC3B6815
:1006AC00094A82FB03129210DB17D21A07497B68A6
:1006BC0041F82320064A7B68002142F8231000BF32
:1006CC000C37BD4680BC704767666666C00000206C
:1006DC009800002080B483B000AF00237B6022E040
:1006EC00154A7B6852F82330012B19D1134A7B68C9
:1006FC0052F82330002B13DD104A7B6852F823305C
:10070C005A1E0E497B6841F823200C4A7B6852F82C
:10071C002330002B04DC0A4A7B68012142F82310A9
:10072C007B6801337B607B68092BD9DD00BF00BF80
:10073C000C37BD4680BC7047E8000020C00000208C
:10074C009800002080B485B000AF154B9B69144A0B
:10075C0043F001039361124B9B6903F00103BB60EF
:10076C00BB680F4BDB690E4A43F08053D3610C4BD3
:10077C00DB6903F080537B607B680A4B5B68FB6032
:10078C00FB6823F0E063FB60FB6843F08063FB6075
:10079C00044AFB68536000BF1437BD4680BC7047E9
:1007AC00001002400000014080B584B000AF7860BA
:1007BC007B681B68B3F1804F13D10C4BDB690B4A80
:1007CC0043F00103D361094BDB6903F00103FB60C8
:1007DC00FB68002200211C2000F0A1F91C2000F075
:1007EC00BAF900BF1037BD4680BD00BF00100240F3
:1007FC0080B400AFFEE780B400AFFEE780B400AF7A
:10080C00FEE780B400AFFEE780B400AFFEE780B433
:10081C0000AF00BFBD4680BC704780B400AF00BFC6
:10082C00BD4680BC704780B400AF00BFBD4680BCE5
:10083C00704780B500AF00F07FF800BF80BD0000AE
:10084C0080B500AF024800F0C5FF00BF80BD00BFFF
:10085C005000002080B400AF00BFBD4680BC704784
:10086C00FFF7F8FF0B480C490C4A002302E0D45860
:10087C00C4500433C4188C42F9D3094A094C0023E0
:10088C0001E013600432A242FBD301F0E3FAFFF75C
:10089C001DFD70470000002020000020081F0008EC
:1008AC002000002014010020FEE7000080B500AFFE
:1008BC00084B1B68074A43F010031360032000F039
:1008CC0023F90F2000F008F8FFF73CFF002318462F
:1008DC0080BD00BF0020024080B582B000AF7860C0
:1008EC00124B1A68124B1B7819464FF47A73B3FBF0
:1008FC00F1F3B2FBF3F3184600F03BF90346002B7F
:10090C0001D001230EE07B680F2B0AD800227968F6
:10091C004FF0FF3000F003F9064A7B6813600023A8
:10092C0000E0012318460837BD4680BD14000020A6
:10093C001C0000201800002080B400AF054B1B7871
:10094C001A46054B1B681344034A136000BFBD468F
:10095C0080BC70471C0000201001002080B400AF48
:10096C00024B1B681846BD4680BC70471001002026
:10097C0080B485B000AF78607B6803F00703FB6040
:10098C000C4BDB68BB60BA684FF6FF031340BB60CF
:10099C00FB681A02BB68134343F0BF6343F4003394
:1009AC00BB60044ABB68D36000BF1437BD4680BC33
:1009BC00704700BF00ED00E080B400AF044BDB6873
:1009CC001B0A03F007031846BD4680BC704700BFE6
:1009DC0000ED00E080B483B000AF0346FB7197F9E3
:1009EC000730002B0BDBFB7903F01F02064997F94C
:1009FC0007305B09012000FA02F241F8232000BF06
:100A0C000C37BD4680BC704700E100E080B483B079
:100A1C0000AF03463960FB7197F90730002B0ADBF6
:100A2C003B68DAB20C4997F907301201D2B20B4489
:100A3C0083F800230AE03B68DAB20849FB7903F03B
:100A4C000F03043B1201D2B20B441A7600BF0C37D1
:100A5C00BD4680BC704700BF00E100E000ED00E047
:100A6C0080B489B000AFF860B9607A60FB6803F0BD
:100A7C000703FB61FB69C3F10703042B28BF0423A5
:100A8C00BB61FB690433062B02D9FB69033B00E015
:100A9C0000237B614FF0FF32BB6902FA03F3DA43A8
:100AAC00BB681A407B699A404FF0FF317B6901FAB1
:100ABC0003F3D9437B680B40134318462437BD46D8
:100ACC0080BC704780B582B000AF78607B68013B1A
:100ADC00B3F1807F01D301230FE00A4A7B68013B0D
:100AEC0053600F214FF0FF30FFF790FF054B0022B2
:100AFC009A60044B07221A60002318460837BD463B
:100B0C0080BD00BF10E000E080B582B000AF78601F
:100B1C007868FFF72DFF00BF0837BD4680BD80B554
:100B2C0086B000AF0346B9607A60FB7300237B612B
:100B3C00FFF742FF78617A68B9687869FFF790FF30
:100B4C00024697F90F3011461846FFF75FFF00BFBA
:100B5C001837BD4680BD80B582B000AF0346FB712F
:100B6C0097F907301846FFF735FF00BF0837BD4629
:100B7C0080BD80B582B000AF78607868FFF7A2FFC7
:100B8C00034618460837BD4680BD000080B48BB0C4
:100B9C0000AF7860396000237B6200233B6248E140
:100BAC0001227B6A02FA03F3FB613B681B68FA695A
:100BBC001340BB61BA69FB699A4240F037813B68CC
:100BCC005B68A34A93425ED0A14A934275D8A14A6E
:100BDC00934258D09F4A93426FD89F4A934252D027
:100BEC009D4A934269D89D4A93424CD09B4A93426A
:100BFC0063D89B4A934246D0994A93425DD8122BB4
:100C0C002AD8122B59D801A252F823F0930C0008C1
:100C1C006D0C00087F0C0008C10C0008C70C000804
:100C2C00C70C0008C70C0008C70C0008C70C00084C
:100C3C00C70C0008C70C0008C70C0008C70C00083C
:100C4C00C70C0008C70C0008C70C0008C70C00082C
:100C5C00750C0008890C0008824A934213D02CE0D2
:100C6C003B68DB683B6229E03B68DB6804333B6232
:100C7C0024E03B68DB6808333B621FE03B68DB68C1
:100C8C000C333B621AE03B689B68002B02D10423B7
:100C9C003B6213E03B689B68012B05D108233B6248
:100CAC007B68FA691A6109E008233B627B68FA6980
:100CBC005A6103E000233B6200E000BFBB69FF2BDD
:100CCC0001D87B6801E07B6804337B61BB69FF2B37
:100CDC0002D87B6A9B0002E07B6A083B9B003B616D
:100CEC007B691A680F213B6901FA03F3DB431A4055
:100CFC00396A3B6901FA03F31A437B691A603B6852
:100D0C005B6803F08053002B00F09080564B9B697E
:100D1C00554A43F001039361534B9B6903F0010364
:100D2C00BB60BB68514A7B6A9B08023352F8233084
:100D3C00FB607B6A03F003039B000F2202FA03F3B0
:100D4C00DB43FA681340FB607B68494A93420DD041
:100D5C007B68484A934207D07B68474A934201D14B
:100D6C00022304E0032302E0012300E000237A6A5B
:100D7C0002F0030292009340FA681343FB603B4974
:100D8C007B6A9B080233FA6841F823203B685B6856
:100D9C0003F48013002B06D0384B9A683749BB6993
:100DAC0013438B6006E0354B9A68BB69DB433349D0
:100DBC0013408B603B685B6803F40013002B06D078
:100DCC002E4BDA682D49BB691343CB6006E02B4BE5
:100DDC00DA68BB69DB4329491340CB603B685B682D
:100DEC0003F40033002B06D0244B5A682349BB690B
:100DFC0013434B6006E0214B5A68BB69DB431F4928
:100E0C0013404B603B685B6803F48033002B06D0C7
:100E1C001A4B1A681949BB6913430B6006E0174B50
:100E2C001A68BB69DB43154913400B607B6A0133BD
:100E3C007B623B681A687B6A22FA03F3002B7FF40F
:100E4C00AFAE00BF00BF2C37BD4680BC704700BFA3
:100E5C0000003210000031100000221000002110A0
:100E6C0000001210000011100010024000000140A0
:100E7C0000080140000C014000100140000401403A
:100E8C0080B483B000AF78600B467B8013467B70D8
:100E9C007B78002B03D07A887B681A6103E07B880F
:100EAC001A047B681A6100BF0C37BD4680BC7047C2
:100EBC0080B485B000AF78600B467B807B68DB68C4
:100ECC00FB607A88FB6813401A04FB68D9437B8863
:100EDC000B401A437B681A6100BF1437BD4680BCB7
:100EEC007047000080B586B000AF78607B68002B3F
:100EFC0001D101236CE27B681B6803F00103002B1A
:100F0C0000F08780924B5B6803F00C03042B0CD031
:100F1C008F4B5B6803F00C03082B12D18C4B5B6876
:100F2C0003F48033B3F5803F0BD1894B1B6803F47A
:100F3C000033002B6CD07B685B68002B68D10123DD
:100F4C0046E27B685B68B3F5803F06D1804B1B683B
:100F5C007F4A43F4803313602EE07B685B68002B80
:100F6C000CD17B4B1B687A4A23F480331360784B8B
:100F7C001B68774A23F4802313601DE07B685B6851
:100F8C00B3F5A02F0CD1724B1B68714A43F480232C
:100F9C0013606F4B1B686E4A43F4803313600BE095
:100FAC006B4B1B686A4A23F480331360684B1B68D5
:100FBC00674A23F4802313607B685B68002B13D093
:100FCC00FFF7CCFC386108E0FFF7C8FC02463B6930
:100FDC00D31A642B01D90323FAE15D4B1B6803F48C
:100FEC000033002BF0D014E0FFF7B8FC386108E0B8
:100FFC00FFF7B4FC02463B69D31A642B01D90323D7
:10100C00E6E1534B1B6803F40033002BF0D100E0F6
:10101C0000BF7B681B6803F00203002B63D04C4BB2
:10102C005B6803F00C03002B0BD0494B5B6803F09F
:10103C000C03082B1CD1464B5B6803F48033002B4C
:10104C0016D1434B1B6803F00203002B05D07B68C1
:10105C001B69012B01D00123BAE13D4B1B6823F026
:10106C00F8027B685B69DB00394913430B603AE09B
:10107C007B681B69002B20D0364B01221A60FFF7CE
:10108C006DFC386108E0FFF769FC02463B69D31A36
:10109C00022B01D903239BE12D4B1B6803F00203A8
:1010AC00002BF0D02A4B1B6823F0F8027B685B699D
:1010BC00DB00274913430B6015E0264B00221A6016
:1010CC00FFF74CFC386108E0FFF748FC02463B692F
:1010DC00D31A022B01D903237AE11D4B1B6803F0B1
:1010EC000203002BF0D17B681B6803F00803002B74
:1010FC003AD07B689B69002B19D0174B01221A60E0
:10110C00FFF72CFC386108E0FFF728FC02463B692E
:10111C00D31A022B01D903235AE10D4B5B6A03F05E
:10112C000203002BF0D0012000F09AFA1CE00A4BCD
:10113C0000221A60FFF712FC38610FE0FFF70EFC7B
:10114C0002463B69D31A022B08D9032340E100BFA6
:10115C000010024000004242800442429E4B5B6AF7
:10116C0003F00203002BE9D17B681B6803F0040336
:10117C00002B00F0A6800023FB75974BDB6903F076
:10118C008053002B0DD1944BDB69934A43F0805371
:10119C00D361914BDB6903F08053BB60BB680123C7
:1011AC00FB758E4B1B6803F48073002B18D18B4B93
:1011BC001B688A4A43F480731360FFF7CFFB3861D6
:1011CC0008E0FFF7CBFB02463B69D31A642B01D92D
:1011DC000323FDE0814B1B6803F48073002BF0D0DC
:1011EC007B68DB68012B06D17B4B1B6A7A4A43F088
:1011FC00010313622DE07B68DB68002B0CD1764B6E
:10120C001B6A754A23F001031362734B1B6A724A03
:10121C0023F0040313621CE07B68DB68052B0CD104
:10122C006D4B1B6A6C4A43F0040313626A4B1B6AD6
:10123C00694A43F0010313620BE0674B1B6A664A71
:10124C0023F001031362644B1B6A634A23F004030B
:10125C0013627B68DB68002B15D0FFF77FFB3861CE
:10126C000AE0FFF77BFB02463B69D31A41F2883256
:10127C00934201D90323ABE0574B1B6A03F00203E3
:10128C00002BEED014E0FFF769FB38610AE0FFF7A2
:10129C0065FB02463B69D31A41F28832934201D96D
:1012AC00032395E04C4B1B6A03F00203002BEED199
:1012BC00FB7D012B05D1484BDB69474A23F080535A
:1012CC00D3617B68DB69002B00F08180424B5B684B
:1012DC0003F00C03082B61D07B68DB69022B46D131
:1012EC003F4B00221A60FFF739FB386108E0FFF72B
:1012FC0035FB02463B69D31A022B01D9032367E065
:10130C00354B1B6803F00073002BF0D17B681B6A14
:10131C00B3F5803F08D1304B5B6823F400327B6817
:10132C009B682D4913434B602B4B5B6823F4741261
:10133C007B68196A7B685B6A0B43274913434B60D4
:10134C00274B01221A60FFF709FB386108E0FFF711
:10135C0005FB02463B69D31A022B01D9032337E064
:10136C001D4B1B6803F00073002BF0D02FE01C4BBF
:10137C0000221A60FFF7F2FA386108E0FFF7EEFA84
:10138C0002463B69D31A022B01D9032320E0124BEE
:10139C001B6803F00073002BF0D118E07B68DB694D
:1013AC00012B01D1012313E00B4B5B68FB60FB6845
:1013BC0003F480327B681B6A9A4206D1FB6803F403
:1013CC0070127B685B6A9A4201D0012300E0002313
:1013DC0018461837BD4680BD001002400070004012
:1013EC006000424280B584B000AF786039607B68A1
:1013FC00002B01D10123D0E06A4B1B6803F00703DB
:10140C003A689A4210D9674B1B6823F0070265496A
:10141C003B6813430B60634B1B6803F007033A688C
:10142C009A4201D00123B8E07B681B6803F00203E9
:10143C00002B20D07B681B6803F00403002B05D025
:10144C00594B5B68584A43F4E06353607B681B68F4
:10145C0003F00803002B05D0534B5B68524A43F44E
:10146C0060535360504B5B6823F0F0027B689B68C1
:10147C004D4913434B607B681B6803F00103002B41
:10148C0040D07B685B68012B07D1474B1B6803F48A
:10149C000033002B15D101237FE07B685B68022BA6
:1014AC0007D1414B1B6803F00073002B09D10123BA
:1014BC0073E03D4B1B6803F00203002B01D10123A9
:1014CC006BE0394B5B6823F003027B685B68364941
:1014DC0013434B60FFF742FAF8600AE0FFF73EFA5D
:1014EC000246FB68D31A41F28832934201D9032396
:1014FC0053E02D4B5B6803F00C027B685B689B0030
:10150C009A42EBD1274B1B6803F007033A689A42C7
:10151C0010D2244B1B6823F0070222493B6813436B
:10152C000B60204B1B6803F007033A689A4201D00A
:10153C00012332E07B681B6803F00403002B08D006
:10154C00194B5B6823F4E0627B68DB681649134334
:10155C004B607B681B6803F00803002B09D0124B0F
:10156C005B6823F460527B681B69DB000E491343F4
:10157C004B6000F021F802460B4B5B681B0903F033
:10158C000F030A49CB5C22FA03F3094A1360094B97
:10159C001B681846FFF7A0F9002318461037BD4604
:1015AC0080BD00BF0020024000100240DC1E00087D
:1015BC00140000201800002080B487B000AF002376
:1015CC00FB600023BB6000237B6100237B60002356
:1015DC003B611E4B5B68FB60FB6803F00C03042B48
:1015EC0002D0082B03D027E0194B3B6127E0FB68A6
:1015FC009B0C03F00F03174AD35C7B60FB6803F46E
:10160C008033002B10D0114B5B685B0C03F0010393
:10161C00114AD35CBB607B680D4A02FB03F2BB68CA
:10162C00B2FBF3F37B6104E07B680C4A02FB03F32F
:10163C007B617B693B6102E0054B3B6100BF3B6911
:10164C0018461C37BD4680BC704700BF00100240D6
:10165C0000127A00EC1E0008FC1E000800093D0078
:10166C0080B485B000AF78600A4B1B680A4AA2FBB5
:10167C0003235B0A7A6802FB03F3FB6000BFFB6881
:10168C005A1EFA60002BF9D100BF00BF1437BD46BB
:10169C0080BC704714000020D34D621080B582B01E
:1016AC0000AF78607B68002B01D1012341E07B689F
:1016BC0093F83D30DBB2002B06D17B68002283F817
:1016CC003C207868FFF770F87B68022283F83D2095
:1016DC007B681A687B6804331946104600F056FA8A
:1016EC007B68012283F846207B68012283F83E2028
:1016FC007B68012283F83F207B68012283F840201D
:10170C007B68012283F841207B68012283F8422008
:10171C007B68012283F843207B68012283F84420F4
:10172C007B68012283F845207B68012283F83D20E9
:10173C00002318460837BD4680BD000080B485B034
:10174C0000AF78607B6893F83D30DBB2012B01D0A1
:10175C00012335E07B68022283F83D207B681B68FF
:10176C00DA687B681B6842F00102DA607B681B68F0
:10177C00164A934209D07B681B68B3F1804F04D0A2
:10178C007B681B68124A934211D17B681B689B686B
:10179C0003F00703FB60FB68062B10D07B681B680B
:1017AC001A687B681B6842F001021A6007E07B68CC
:1017BC001B681A687B681B6842F001021A600023E0
:1017CC0018461437BD4680BC704700BF002C014042
:1017DC000004004080B584B000AF78607B681B6863
:1017EC00DB68FB607B681B681B69BB60BB6803F034
:1017FC000203002B20D0FB6803F00203002B1BD04C
:10180C007B681B686FF002021A617B6801221A77F1
:10181C007B681B689B6903F00303002B03D078687B
:10182C0000F098F905E0786800F08BF9786800F022
:10183C009AF97B6800221A77BB6803F00403002B2B
:10184C0020D0FB6803F00403002B1BD07B681B68C3
:10185C006FF004021A617B6802221A777B681B689E
:10186C009B6903F44073002B03D0786800F072F985
:10187C0005E0786800F065F9786800F074F97B6829
:10188C0000221A77BB6803F00803002B20D0FB68FA
:10189C0003F00803002B1BD07B681B686FF0080259
:1018AC001A617B6804221A777B681B68DB6903F07A
:1018BC000303002B03D0786800F04CF905E078683E
:1018CC0000F03FF9786800F04EF97B6800221A7737
:1018DC00BB6803F01003002B20D0FB6803F010034F
:1018EC00002B1BD07B681B686FF010021A617B68A1
:1018FC0008221A777B681B68DB6903F44073002BA2
:10190C0003D0786800F026F905E0786800F019F942
:10191C00786800F028F97B6800221A77BB6803F01E
:10192C000103002B0CD0FB6803F00103002B07D044
:10193C007B681B686FF001021A617868FEF746FE3F
:10194C00BB6803F08003002B0CD0FB6803F0800312
:10195C00002B07D07B681B686FF080021A617868D7
:10196C0000F06FFABB6803F04003002B0CD0FB684F
:10197C0003F04003002B07D07B681B686FF040021C
:10198C001A61786800F0F8F8BB6803F02003002BAC
:10199C000CD0FB6803F02003002B07D07B681B687E
:1019AC006FF020021A61786800F042FA00BF10371D
:1019BC00BD4680BD80B584B000AF7860396000232F
:1019CC00FB737B6893F83C30012B01D10223B4E00C
:1019DC007B68012283F83C207B68022283F83D203F
:1019EC007B681B689B68BB60BB6823F07703BB609C
:1019FC00BB6823F47F43BB607B681B68BA689A6042
:101A0C003B681B68B3F5005F3ED0B3F5005F00F296
:101A1C008780B3F5805F00F08680B3F5805F7FD858
:101A2C00702B1AD0702B7BD8602B50D0602B77D8B2
:101A3C00502B3CD0502B73D8402B58D0402B6FD808
:101A4C00302B64D0302B6BD8202B60D0202B67D858
:101A5C00002B5CD0102B5AD062E07B6818683B6876
:101A6C0099683B685A683B68DB6800F06AF97B68E8
:101A7C001B689B68BB60BB6843F07703BB607B68EB
:101A8C001B68BA689A604FE07B6818683B68996875
:101A9C003B685A683B68DB6800F053F97B681B684D
:101AAC009A687B681B6842F480429A603CE07B68D1
:101ABC0018683B6859683B68DB681A4600F0CAF83E
:101ACC007B681B685021184600F021F92CE07B68DC
:101ADC0018683B6859683B68DB681A4600F0E8F800
:101AEC007B681B686021184600F011F91CE07B68CC
:101AFC0018683B6859683B68DB681A4600F0AAF81E
:101B0C007B681B684021184600F001F90CE07B68EB
:101B1C001A683B681B681946104600F0F8F803E099
:101B2C000123FB7300E000BF7B68012283F83D209A
:101B3C007B68002283F83C20FB7B18461037BD469F
:101B4C0080BD80B483B000AF786000BF0C37BD4659
:101B5C0080BC704780B483B000AF786000BF0C3796
:101B6C00BD4680BC704780B483B000AF786000BFC6
:101B7C000C37BD4680BC704780B483B000AF786032
:101B8C0000BF0C37BD4680BC7047000080B485B0E8
:101B9C0000AF786039607B681B68FB607B682B4A00
:101BAC00934207D07B68B3F1804F03D07B68284AFF
:101BBC00934208D1FB6823F07003FB603B685B68C1
:101BCC00FA681343FB607B68204A934207D07B681A
:101BDC00B3F1804F03D07B681D4A934208D1FB6858
:101BEC0023F44073FB603B68DB68FA681343FB60CB
:101BFC00FB6823F080023B685B691343FB607B68E6
:101C0C00FA681A603B689A687B68DA623B681A6803
:101C1C007B689A627B680D4A934203D13B681A69D0
:101C2C007B681A637B6801225A617B681B6903F02D
:101C3C000103002B05D07B681B6923F001027B6834
:101C4C001A6100BF1437BD4680BC7047002C0140A0
:101C5C000004004080B487B000AFF860B9607A60CF
:101C6C00FB681B6A7B61FB681B6A23F00102FB6843
:101C7C001A62FB689B693B613B6923F0F0033B6193
:101C8C007B681B013A6913433B617B6923F00A03B0
:101C9C007B617A69BB6813437B61FB683A699A6123
:101CAC00FB687A691A6200BF1C37BD4680BC70475E
:101CBC0080B487B000AFF860B9607A60FB681B6ACB
:101CCC007B61FB681B6A23F01002FB681A62FB68DD
:101CDC009B693B613B6923F470433B617B681B034D
:101CEC003A6913433B617B6923F0A0037B61BB68BA
:101CFC001B017A6913437B61FB683A699A61FB6843
:101D0C007A691A6200BF1C37BD4680BC704780B42C
:101D1C0085B000AF786039607B689B68FB60FB68BE
:101D2C0023F07003FB603A68FB68134343F007032E
:101D3C00FB607B68FA689A6000BF1437BD4680BCB4
:101D4C00704780B487B000AFF860B9607A603B60D0
:101D5C00FB689B687B617B6923F47F437B613B68F9
:101D6C001A027B681A43BB6813437A6913437B617D
:101D7C00FB687A699A6000BF1C37BD4680BC70470F
:101D8C0080B485B000AF786039607B6893F83C30E4
:101D9C00012B01D1022341E07B68012283F83C2016
:101DAC007B68022283F83D207B681B685B68FB60C4
:101DBC007B681B689B68BB60FB6823F07003FB604F
:101DCC003B681B68FA681343FB607B681B68FA6806
:101DDC005A607B681B68144A934209D07B681B6865
:101DEC00B3F1804F04D07B681B68104A93420CD12E
:101DFC00BB6823F08003BB603B685B68BA68134325
:101E0C00BB607B681B68BA689A607B68012283F8A8
:101E1C003D207B68002283F83C20002318461437B1
:101E2C00BD4680BC704700BF002C01400004004040
:101E3C0080B483B000AF786000BF0C37BD4680BC67
:101E4C00704780B483B000AF786000BF0C37BD46DC
:101E5C0080BC704770B500260C4D0D4C641BA41053
:101E6C00A64209D100F022F800260A4D0A4C641B48
:101E7C00A410A64205D170BD55F8043B9847013615
:101E8C00EEE755F8043B98470136F2E7001F0008CF
:101E9C00001F0008001F0008041F0008034602442E
:101EAC00934200D1704703F8011BF9E7F8B500BF66
:101EBC00F8BC08BC9E467047F8B500BFF8BC08BC1F
:041ECC009E46704777
:101ED000C0F9A4B0999282F8809000000000000040
:101EE00000000000010203040607080902030405BC
:101EF000060708090A0B0C0D0E0F10100102000056
:041F000031010008A3
:041F04000D010008C3
:101F0800FFFFFFFFFFFFFFFF0F00000008000000BA
:101F18003200000000127A001000000001000000EA
:040000050800086D7A
:00000001FF
